:020000040800F2
:1000000030060020C1010008290E0008210E00085A
:10001000250E00086B0700084F26000800000000AE
:10002000000000000000000000000000BB100008FD
:10003000410D000800000000A50E00080D12000888
:10004000DB010008DB010008DB010008DB01000820
:10005000DB010008DB010008DB010008DB01000810
:10006000DB010008DB010008DB010008DB01000800
:10007000DB010008DB010008DB010008DB010008F0
:10008000DB010008DB010008DB010008DB010008E0
:10009000DB010008DB010008DB010008DB010008D0
:1000A000DB010008DB010008DB010008DB010008C0
:1000B00079120008DB010008DB010008DB01000801
:1000C000DB010008DB010008DB010008DB010008A0
:1000D000DB010008F9230008DB010008DB01000850
:1000E000DB010008DB010008DB010008DB01000880
:1000F000DB010008DB010008DB010008DB01000870
:10010000DB010008DB010008DB010008DB0100085F
:10011000DB010008DB010008DB010008DB0100084F
:10012000DB010008DB010008DB010008DB0100083F
:10013000DB010008DB010008DB010008DB0100082F
:10014000DB010008DB010008DB010008DB0100081F
:10015000DB010008DB010008DB010008DB0100080F
:10016000DB010008DB010008DB010008DB010008FF
:10017000DB010008DB010008DB010008DB010008EF
:10018000DB010008DB010008DB010008DB010008DF
:10019000DB010008DB010008DB010008DB010008CF
:1001A000DB010008DB010008DB010008DFF80CD0F0
:1001B00000F098FA00480047B134000830060020EB
:1001C0000648804706480047FEE7FEE7FEE7FEE7F1
:1001D000FEE7FEE7FEE7FEE7FEE7FEE71112000896
:1001E000AD0100080EB5C10F80EAE0700844CA07EF
:1001F000002140F233438DE80E000A460B4600F022
:1002000083F803B000BD00F0004230F000400AD097
:10021000C10D01F56071C0F3160042EA0151C20838
:1002200040071143704700200146704730B5041E57
:1002300071F1000404DB4FF00044404264EB010123
:10024000141E73F1000405DB1C464FF000435242BC
:1002500063EB0403994208BF904230BD30B50B46B2
:10026000014600202022012409E021FA02F59D42E6
:1002700005D303FA02F5491B04FA02F52844151EBA
:10028000A2F10102F1DC30BD2DE9F05F054600204E
:1002900092469B4688460646814640241BE02846F7
:1002A00041464746224600F03EFA53465A46C01A97
:1002B000914110D311461846224600F025FA2D1A16
:1002C00067EB01084F4622460120002100F01CFA8E
:1002D00017EB00094E41201EA4F10104DFDC484663
:1002E00031462A464346BDE8F09F10B5141E73F10F
:1002F000000408DA401C41F1000192185B411A43E6
:1003000001D120F0010010BD2DE9F04D92469B4631
:1003100011B1B1FA81F202E0B0FA80F220329046D7
:1003200000F0F2F904460F4640EA0A0041EA0B01E8
:1003300053465A46084313D0114653EA010019D0D8
:10034000C8F14002504600F0EEF905460E46504610
:100350005946424600F0D8F9084305D0012004E090
:1003600020463946BDE8F08D0020054346EAE07698
:100370002C4337430A986305E40AA0EB08000022E7
:10038000FD0A44EA47540A3002D500200146E9E755
:10039000010510196941DDE9084500196941BDE809
:1003A000F04DA2E72DE9FE4F804681EA0300C00F21
:1003B0000C46009021F0004123F00045B8EB02000C
:1003C000A94105D24046214690461C460B460246AE
:1003D00023F00040104347D0270DC7F30A00C3F3B2
:1003E0000A510290401A019040286BDAC3F31300BF
:1003F00040F4801B0098924620B10023D2EB030A00
:1004000063EB0B0B01985946C0F14002504600F0D7
:100410007BF906460D4650465946019A00F093F97D
:1004200010EB08006141002487EA115284EAE77367
:100430001A4340D0009A62B3019A012A4FEA075248
:1004400015DC001B61EB02014FF0004202EA07528B
:10045000CDE90042001C41F5801132462B46FFF7E2
:1004600053FF03B0BDE8F08F40462146F9E7001B7B
:1004700061EB0201001C41F5801300185B4120185C
:10048000A2F5001747EB030140EAD570B6196D419C
:1004900011E06D084FEA360645EAC0754FEA07528B
:1004A000001B61EB0201001C41F5801149084FEA75
:1004B00030000019514132462B4603B0BDE8F04FE1
:1004C000FFF713BF0098012240000023D0EB020287
:1004D00063EBE073009821464FEAE074B8EB00004C
:1004E00061EB0401E9E783F000435BE781F0004141
:1004F00058E72DE9FE4F81EA030404F0004421F09F
:10050000004100944FF0000B23F0004350EA010437
:100510005ED052EA03045BD0C3F30A54C1F30A5518
:100520002C44A4F2F3340194A0FB0254C1F3130150
:1005300041F48011C3F3130343F4801301FB02441D
:1005400000FB034E840A970A44EA815447EA835722
:10055000A4FB076802958D0A05FB07854FEA932CDB
:1005600004FB0C542705029D4FEA065847EA16374C
:10057000B5EB08056EEB070C870E920E47EA811764
:1005800042EA8312A7FB0201B6EB0B0164EB000405
:100590002B0D43EA0C335E1844EB1C50DA465146EF
:1005A000E7FB0201C5F313044FEA0B3343EA14538C
:1005B0004FEA0432019C43EA0603A4F10C040294BE
:1005C000009CCDE900B4FFF79FFE03B0BDE8F08FBB
:1005D00000200146F9E72DE9F04D81EA030404F01B
:1005E000004B21F0004514464FF0000A23F0004173
:1005F00050EA050220D054EA01021DD0C5F30A5783
:100600000246C5F31303C1F31300C1F30A5640F4C5
:10061000801543F48013A7EB0608101BD64608F29A
:10062000FD3873EB050002D308F1010801E09218D0
:100630005B41B8F1000F03DA00200146BDE8F08D00
:1006400000204FF48011064684460EE0171B73EB22
:10065000050705D3121B63EB050306434CEA010CA7
:1006600049084FEA300092185B4150EA0107EDD18A
:1006700052EA030012D082EA040083EA050108432B
:1006800005D0101BAB4106D20122002306E0002258
:100690004FF0004302E06FF0010253101AEB060026
:1006A0004CEB085110EB0A0041EB0B01BDE8F04D9B
:1006B000FFF71BBEC1F30A52C1F3130140F2FF332F
:1006C00041F480119A4202DA00200146704740F25C
:1006D00033439A42A2F2334202DC524200F023B882
:1006E00000F012B8064C074D06E0E06840F0010348
:1006F00094E8070098471034AC42F6D3FFF75AFD50
:10070000085F0008285F0008202A04DB203A00FA6E
:1007100002F1002070479140C2F1200320FA03F358
:10072000194390407047202A04DB203A21FA02F056
:100730000021704721FA02F3D040C2F1200291401B
:10074000084319467047202A06DBCB17203A41FAA6
:1007500002F043EAE07306E041FA02F3D040C2F14E
:100760002002914008431946704700BFFEE7000091
:100770002DE9F04FC3B006464FF00008C14616F809
:1007800009000A2806D1FEA001F064FF002043B052
:10079000BDE8F08F03E009F1010000F0FF0916F851
:1007A0000900FD2804D009F10100305C0A28F2D1CB
:1007B00016F80900F6494872A9F10100305C029070
:1007C0000298A9EB0000801FC7B2F05D08700024FA
:1007D000002505E0E019305C03A90855641C6D1C78
:1007E000012DF7DB601E03A900EB010B9BF8000055
:1007F000E7490870002505E0E019305C03A90855B9
:10080000641C6D1C042DF7DB201F03A900EB010AFB
:10081000DAF80080B8F1000F04D1DEA001F01AFF71
:100820000020B4E7DA480078FA286FD108F0010018
:10083000002865D0002505E0E019305C03A90855C3
:10084000641C6D1C042DF7DB00BF201F03A9085C8E
:100850008DF80400E01E085C8DF80500A01E085C01
:100860008DF80600601E085C8DF807009DED010AFA
:10087000D14880ED070A00BF002505E0E019305C93
:1008800003A90855641C6D1C042DF7DB00BF201F55
:1008900003A9085C8DF80400E01E085C8DF80500D3
:1008A000A01E085C8DF80600601E085C8DF807002D
:1008B0009DED010AC04880ED080A00BF002505E053
:1008C000E019305C03A90855641C6D1C042DF7DB8E
:1008D00000BF201F03A9085C8DF80400E01E085C1F
:1008E0008DF80500A01E085C8DF80600601E085CEF
:1008F0008DF807009DED010AAF4880ED090A00BFA1
:10090000C8F34000002866D0002506E013E2E01995
:10091000305C03A90855641C6D1C042DF7DB00BF77
:10092000201F03A9085C8DF80400E01E085C8DF808
:100930000500A01E085C8DF80600601E085C8DF89E
:1009400007009DED010A9C4880ED0A0A00BF0025C2
:1009500005E0E019305C03A90855641C6D1C042DEA
:10096000F7DB00BF201F03A9085C8DF80400E01E20
:10097000085C8DF80500A01E085C8DF80600601E5E
:10098000085C8DF807009DED010A8B4880ED0B0A8D
:1009900000BF002505E0E019305C03A90855641C80
:1009A0006D1C042DF7DB00BF201F03A9085C8DF828
:1009B0000400E01E085C8DF80500A01E085C8DF8A0
:1009C0000600601E085C8DF807009DED010A7A485C
:1009D00080ED0C0A00BFC8F38000002865D0002518
:1009E00005E0E019305C03A90855641C6D1C042D5A
:1009F000F7DB00BF201F03A9085C8DF80400E01E90
:100A0000085C8DF80500A01E085C8DF80600601ECD
:100A1000085C8DF807009DED010A674880ED040A27
:100A200000BF002505E0E019305C03A90855641CEF
:100A30006D1C042DF7DB00BF201F03A9085C8DF897
:100A40000400E01E085C8DF80500A01E085C8DF80F
:100A50000600601E085C8DF807009DED010A5648EF
:100A600080ED050A00BF002505E0E019305C03A910
:100A70000855641C6D1C042DF7DB00BF201F03A963
:100A8000085C8DF80400E01E085C8DF80500A01ECF
:100A9000085C8DF80600601E085C8DF807009DED6F
:100AA000010A454880ED060A00BFC8F3C00008B33C
:100AB000002505E0E019305C03A90855641C6D1C95
:100AC000042DF7DB00BF201F03A9085C8DF804008C
:100AD000E01E085C8DF80500A01E085C8DF806007D
:100AE000601E085C8DF807009DED010A324880ED1C
:100AF000020A00BFC8F3001008B3002505E0E019A2
:100B0000305C03A90855641C6D1C042DF7DB00BF85
:100B1000201F03A9085C8DF80400E01E085C8DF816
:100B20000500A01E085C8DF80600601E085C8DF8AC
:100B300007009DED010A204880ED030A00BFC8F3BD
:100B40004010E0B1002505E0E019305C03A908552C
:100B5000641C6D1C042DF7DB00BF201F03A9085C7B
:100B60008DF80400E01E085C8DF80500A01E085CEE
:100B70008DF80600601E085C8DF807001EE023E07B
:100B80005061636B6574206E6F20646174610A004C
:100B90000C01002053656E736F7273206461746181
:100BA0003A204E6F2053656E736F727320456E61ED
:100BB000626C650A0D000000180100209DED010A1D
:100BC0005E4880ED000A00BFC8F3801008B300251E
:100BD00005E0E019305C03A90855641C6D1C042D68
:100BE000F7DB00BF201F03A9085C8DF80400E01E9E
:100BF000085C8DF80500A01E085C8DF80600601EDC
:100C0000085C8DF807009DED010A4C4880ED010A53
:100C100000BFC8F3C01020B3002505E0E019305C28
:100C200003A90855641C6D1C042DF7DB00BF201FB1
:100C300003A9085C8DF80400E01E085C8DF805002F
:100C4000A01E085C8DF80600601E085C8DF8070089
:100C50009DED010ABCEEC00A10EE100A37498886E5
:100C600000BFC8F34020002865D0002505E0E0194A
:100C7000305C03A90855641C6D1C042DF7DB00BF14
:100C8000201F03A9085C8DF80400E01E085C8DF8A5
:100C90000500A01E085C8DF80600601E085C8DF83B
:100CA00007009DED010A254880ED0E0A00BF0025D2
:100CB00005E0E019305C03A90855641C6D1C042D87
:100CC000F7DB00BF201F03A9085C8DF80400E01EBD
:100CD000085C8DF80500A01E085C8DF80600601EFB
:100CE000085C8DF807009DED010A144880ED0F0A9D
:100CF00000BF002505E0E019305C03A90855641C1D
:100D00006D1C042DF7DB00BF201F03A9085C8DF8C4
:100D10000400E01E085C8DF80500A01E085C8DF83C
:100D20000600601E085C8DF807009DED010A03486F
:100D300080ED100A00BF012029E500001801002005
:100D40007047F0B50A4600210023002400BF3DE0B3
:100D5000012505FA01F3156805EA03049C4234D124
:100D600005684F000326BE40B543056015794E0067
:100D7000B5400668354305601579012D02D0157917
:100D8000022D16D185684F000326BE40B54385600D
:100D900055794E00B5408668354385604568012623
:100DA0008E40B5434560456896798E40B6B235436E
:100DB0004560C5684F000326BE40B543C560D57980
:100DC0004E00B540C6683543C560491C1029BFD3E5
:100DD000F0BDF0B5002300244D07ED0E02FA05F337
:100DE000CE1000F1200555F826504E07F70E0F26BD
:100DF000BE40B543CF1000F1200646F82750CE1074
:100E000000F1200555F8265045EA0304CE1000F104
:100E1000200545F82640F0BD4183704701837047A7
:100E200000BFFEE700BFFEE77047000070B500217D
:100E300000230F22C4781CB3174C246804F4E06428
:100E4000C4F5E064C4F30721C1F10404E3B20A412C
:100E500044789C40E1B28478144021430C07210E71
:100E60000E4C05786155047804F01F050124AC4050
:100E700005786D11AD0005F1E025C5F8004109E0E8
:100E8000047804F01F050124AC40054D0678761166
:100E900045F8264070BD00000CED00E000E400E0E5
:100EA00080E100E07047000029B1064A1268024361
:100EB000044B1A6004E0034A12688243014B1A6033
:100EC000704700003038024029B1064A12680243D8
:100ED000044B1A6004E0034A12688243014B1A6013
:100EE000704700004038024029B1064A12680243A8
:100EF000044B1A6004E0034A12688243014B1A60F3
:100F0000704700002038024029B1064A12680243A7
:100F1000044B1A6004E0034A12688243014B1A60D2
:100F2000704700004438024029B1064A1268024363
:100F3000044B1A6004E0034A12688243014B1A60B2
:100F40007047000024380240F0B500210022002440
:100F5000022500260223324F3F6807F00C0121B121
:100F6000042905D0082937D105E02E4F076036E067
:100F70002D4F076033E02A4F3F1F3F68C7F380566D
:100F8000274F3F1F3F6807F03F036EB1264FB7FB67
:100F9000F3F7DFF88CC0ACF1040CDCF800C0CCF344
:100FA000881C07FB0CF40CE01E4FB7FBF3F7DFF8CF
:100FB00070C0ACF1040CDCF800C0CCF3881C07FB5B
:100FC0000CF4174F3F1F3F68C7F301477F1C7D009C
:100FD000B4FBF5F7076002E0124F076000BF00BFE7
:100FE0000F4F3F6807F0F0010909104F7A5C07685E
:100FF000D74047600A4F3F6807F4E051890A0B4F1A
:101000007A5C4768D7408760054F3F6807F46041C6
:10101000490B064F7A5C4768D740C760F0BD0000B7
:10102000083802400024F40000127A00000000207A
:101030000149086070470000E011474221B1028871
:1010400042F04002028004E002884FF6BF731A406B
:10105000028070470246002013890B400BB101202B
:1010600000E00020704710B50022028802F44152CF
:101070000B884C8823438C882343CC8823430C89DA
:1010800023434C8923438C892343CC8923431A432C
:101090000280838B4FF2FF74234083830B8A038289
:1010A00010BD0021018041808180C180018141818A
:1010B0008181C18107210182704770470CB50020F2
:1010C000019000904248006840F480304049086038
:1010D00000BF3F48006800F4003000900198401CB9
:1010E0000190009818B90198B0F5A04FF1D1384897
:1010F000006800F4003010B10120009001E00020F1
:1011000000900098012803D132483149091D086038
:101110002F484030006840F080502D494031086031
:101120002D48006840F440402B49086028480830AA
:1011300000682749083108600846006840F400400C
:1011400008600846006840F4A05008602048006825
:1011500040F080701E49086000BF1D48006800F024
:1011600000700028F9D01C48006840F480301A490B
:10117000086000BF1848406800F480300028F9D0AB
:101180001548006840F400301349086000BF124859
:10119000406800F400300028F9D040F205700F4993
:1011A00008600B480830006820F003000849083147
:1011B00008600846006840F00200086000BF04486C
:1011C0000830006800F00C000828F8D10CBD0000C1
:1011D00000380240085A400700700040003C0240BE
:1011E00070B50446204601F033F90546284670BD27
:1011F00010B5044604A001F02DFA204601F084F950
:101200000A2001F071F910BD0D00000070470000C8
:1012100010B51548006840F4700013490860134881
:10122000006840F001001149086000200F490831B2
:1012300008600E4800680E4908400C4908600D48D7
:10124000091D0860081F006820F48020091F08603D
:10125000002006490C310860FFF730FF4FF00060B6
:1012600001498039086010BD88ED00E00038024077
:10127000FFFFF6FE1030002410B50120054908706C
:101280000121800700F00BF800214FF0804000F0B2
:1012900009F810BD11000020CA4302827047CA43FA
:1012A0000282704721B1028842F00102028004E00C
:1012B00002884FF6FE731A40028070471FB5002463
:1012C00001210846FFF700FE4FF0804000F038F89B
:1012D0000120FFF7ADFE1948006842F6E061B0FB5F
:1012E000F1F0401E84B2481E0290ADF80440002088
:1012F000ADF80C00ADF8060001A94FF0804000F0F9
:10130000F3F801218807FFF7C7FF01221146900774
:1013100000F0DEF801218807FFF7C4FF1C208DF8DC
:10132000000000208DF801008DF8020001208DF8EA
:1013300003006846FFF77AFD1FBD0000D0000020C3
:1013400010B504465548844208D101210846FFF7EC
:10135000EBFD00210120FFF7E7FD9DE0B4F1804F98
:1013600008D101210846FFF7BFFD00210120FFF74A
:10137000BBFD91E04A48844208D101210220FFF7D9
:10138000B3FD00210220FFF7AFFD85E04548844210
:1013900008D101210420FFF7A7FD00210420FFF759
:1013A000A3FD79E04048844208D101210820FFF7DD
:1013B0009BFD00210820FFF797FD6DE03B4884422C
:1013C00008D101211020FFF78FFD00211020FFF729
:1013D0008BFD61E03648844208D101212020FFF7CF
:1013E00083FD00212020FFF77FFD55E03148844236
:1013F00008D101210220FFF797FD00210220FFF70D
:1014000093FD49E02C48844209D101210804FFF7EB
:101410008BFD00214FF48030FFF786FD3CE027482C
:10142000844209D101214804FFF77EFD00214FF4D9
:101430000030FFF779FD2FE02148844209D10121D6
:101440008804FFF771FD00214FF48020FFF76CFD49
:1014500022E01C48844208D101214020FFF744FDCE
:1014600000214020FFF740FD16E01748844208D1D4
:1014700001218020FFF738FD00218020FFF734FD97
:101480000AE01248844207D101218015FFF72CFDA4
:101490000021A015FFF728FD10BD0000000001404D
:1014A0000004004000080040000C00400010004014
:1014B000001400400004014000400140004401408D
:1014C0000048014000180040001C0040002000407F
:1014D0001AB183890B43838102E083898B43838123
:1014E000704741627047000000220288184B984202
:1014F0000ED0184B98420BD0B0F1804F08D0164B4D
:10150000984205D0154B984202D0154B984204D111
:101510004FF68F731A404B881A43124B984207D0EC
:10152000114B984204D04FF6FF431A400B891A43DF
:1015300002804B68C3620B880385054B984202D03A
:10154000044B984201D18B7A038601238382704732
:101550000000014000040140000400400008004079
:10156000000C0040001000400014004001B502E0F3
:101570000098401E009000980028F9D108BD2DE980
:10158000F05F04460D4690469946DDF828B0444584
:1015900003DD0FFA88F7A046BCB24D4503DD0FFA14
:1015A00089F7A946BDB2A8EB04000FFA80FAA9EBAF
:1015B000050006B2BAF1000F0BD100BF5A4629460A
:1015C000204600F063F8681C85B2A945F6DABDE84C
:1015D000F09F56B900BF5A462946204600F056F8FB
:1015E000601C84B2A045F6DAF1E7B24526DDCAEB0D
:1015F000460007B21AE05A462946204600F046F84F
:10160000444502DA601C84B201E0601E84B2002FFF
:1016100008DD681C85B27000022101FB1A00384405
:1016200007B203E0022000FB067007B24445E2D196
:101630005A462946204600F029F825E0C6EB4A0024
:1016400007B21AE05A462946204600F01FF84D45D9
:1016500002DA681C85B201E0681E85B2002F08DD41
:10166000601C84B27000022101FB1A00384407B2EA
:1016700003E0022000FB067007B24D45E2D15A4656
:101680002946204600F002F800BFA0E770B50546E5
:101690000E46144633462A463146284600F0DAFA0A
:1016A0002C2000F0A3FA201200F0BAFAE0B200F009
:1016B000B7FA70BD2DE9F84305460E461746984621
:1016C000089C33463A46314628460094FFF757FFB8
:1016D00043462A46314628460094FFF750FF4346CA
:1016E0003A46314638460094FFF749FF43463A46AA
:1016F000414628460094FFF742FFBDE8F88300000A
:101700002DE9F04104462612E7B20E484088401EFB
:1017100083B20C480088401E82B20021084600F0C7
:1017200099FA2C2000F062FA002506E0F0B200F0F1
:1017300077FAF8B200F074FA6D1CB5F5963FF5D360
:10174000BDE8F081000100201CB501210820FFF751
:10175000ABFB4FF40050009002208DF805000120F3
:101760008DF8040000208DF806008DF8070069460A
:101770001A48FFF7E6FA01210420FFF795FB042041
:10178000009069461648FFF7DCFA01210820FFF7B0
:101790008BFB01208DF807000003009069460F487D
:1017A000FFF7CFFA04210E48FFF738FB00210D4860
:1017B00000F012FD00F01EF800200B4908800B49D4
:1017C0000880F0200A4908804FF4A070488001206A
:1017D00008714FF6FF70FFF793FF1CBD000C02402D
:1017E0000008024000500140FE000020FC000020E4
:1017F0000001002010B54FF480519248FFF70EFB16
:10180000012000F0F3F99048FFF7B0FECB2000F084
:10181000EDF9392000F004FA2C2000F001FA002044
:1018200000F0FEF9342000F0FBF9022000F0F8F996
:10183000CF2000F0DBF9002000F0F2F9C12000F029
:10184000EFF9302000F0ECF9E82000F0CFF9852026
:1018500000F0E6F9002000F0E3F9782000F0E0F96C
:10186000EA2000F0C3F9002000F0DAF9002000F0CF
:10187000D7F9ED2000F0BAF9642000F0D1F9032087
:1018800000F0CEF9122000F0CBF9812000F0C8F969
:10189000F72000F0ABF9202000F0C2F9C02000F0E2
:1018A000A5F9232000F0BCF9C12000F09FF9102019
:1018B00000F0B6F9C52000F099F93E2000F0B0F92B
:1018C000282000F0ADF9C72000F090F9862000F044
:1018D000A7F9362000F08AF9482000F0A1F93A2053
:1018E00000F084F9552000F09BF9B12000F07EF95A
:1018F000002000F095F9182000F092F9B62000F0D1
:1019000075F9082000F08CF9822000F089F9272071
:1019100000F086F9F22000F069F9002000F080F96B
:101920002A2000F063F9002000F07AF9002000F08E
:1019300077F9002000F074F9EF2000F071F92B2006
:1019400000F054F9002000F06BF9002000F068F975
:10195000012000F065F93F2000F062F9262000F038
:1019600045F9012000F05CF9E02000F03FF90F207C
:1019700000F056F9312000F053F92B2000F050F917
:101980000C2000F04DF90E2000F04AF9082000F07C
:1019900047F94E2000F044F9F12000F041F93720DA
:1019A00000F03EF9072000F03BF9102000F038F974
:1019B000032000F035F90E2000F032F9092000F084
:1019C0002FF9002000F02CF9E12000F00FF90020A1
:1019D00000F026F90E2000F023F9142000F020F981
:1019E000032000F01DF9112000F01AF9072000F083
:1019F00017F9312000F014F9C12000F011F9482046
:101A000000F00EF9082000F00BF90F2000F008F9A3
:101A10000C2000F005F9312000F002F9362000F02A
:101A2000FFF80F2000F0FCF8112000F0DFF8074865
:101A3000FFF79CFD292000F0D9F82C2000F0D6F803
:101A400010BD0000000C024080841E0040420F00C8
:101A50002DE9F05F0746884691461C46DDF828B020
:101A6000264807802648A0F8008020782349098866
:101A7000084424490988884208DD6078204909889B
:101A800008441F49088000201C49088000252AE0DE
:101A9000A9F12000617800FB0150616831F810A0C5
:101AA00000261CE00AFA06F000F4004058B1144A7F
:101AB00012882A4491B2114A1288324490B25A468E
:101AC000FFF7E4FD0AE00E4A12882A4491B20B4A5D
:101AD0001288324490B20B9AFFF7D8FD761C20781A
:101AE000B042DFD86D1C6078A842D1D82078034975
:101AF0000988084401490880BDE8F09FFC000020E7
:101B0000FE000020000100202DE9FC4705460E469E
:101B100014461F46DDE90A9AA84619480580194867
:101B2000068027E020780A2813D17878401C1549D0
:101B3000098808441349088060780D2804D10020E2
:101B40000F490880641C02E00D48A0F80080641C66
:101B500010E020780D2801D1641C0BE0CDE9009A3B
:101B600014F8012B3B460748018805480088FFF719
:101B70006FFF00BF20780028D4D1BDE8FC870000AB
:101B8000FC000020FE00002010B50446362000F0C6
:101B90002DF81CB9582000F043F810E0012C03D1B7
:101BA000882000F03DF80AE0022C03D1282000F044
:101BB00037F804E0032C02D1E82000F031F80CB132
:101BC000012C08D1F020084908804FF4A07048800B
:101BD0000120087107E04FF4A07003490880F0204D
:101BE00048800020087110BD0001002010B5044697
:101BF0004FF400510748FFF70FF904210648FFF79B
:101C00000BF92146054800F01BFB04210248FFF7B1
:101C100005F910BD000C02400008024000500140D0
:101C200010B504464FF400510748FFF7F7F80421B8
:101C30000648FFF7F1F82146054800F001FB0421B2
:101C40000248FFF7EBF810BD000C0240000802400C
:101C5000005001402DE9F04104460D4616461F464E
:101C60002A20FFF7C3FF2012FFF7DAFFE0B2FFF7E9
:101C7000D7FF3012FFF7D4FFF0B2FFF7D1FF2B20D0
:101C8000FFF7B4FF2812FFF7CBFFE8B2FFF7C8FF5A
:101C90003812FFF7C5FFF8B2FFF7C2FFBDE8F081C9
:101CA00010B588B0044600208DF81E008DF81F0086
:101CB00003208DF81D0002208DF81C00CCB90121F5
:101CC0000846FFF7F1F8E020069006A92948FFF73B
:101CD00038F8052211462748FFF77BF80522062130
:101CE0002448FFF776F8052207212248FFF771F80C
:101CF00018E001210220FFF7D7F83820069006A946
:101D00001D48FFF71EF8052203211B48FFF761F865
:101D1000052204211848FFF75CF8052211461648F1
:101D2000FFF757F801210803FFF7EEF801A8FFF7C6
:101D3000B8F92020ADF810000020ADF80800ADF88B
:101D40000400ADF812004FF48270ADF806000020D8
:101D5000ADF80A00ADF80C004FF40070ADF80E00BD
:101D600001A90648FFF77FF901210448FFF766F94A
:101D700008B010BD000002400004024000300140E5
:101D800010B588B0044600208DF81E0001208DF8A3
:101D90001F0003208DF81D0002208DF81C001CBBC5
:101DA0000121FFF781F801210420FFF77DF80C20C5
:101DB000069006A92D48FEF7C4FF4FF480600690F8
:101DC00006A92B48FEF7BDFF052202212748FFF791
:101DD00000F8052203212548FEF7FBFF05220A2112
:101DE0002348FEF7F6FF19E001210220FFF75CF817
:101DF0004FF46040069006A91D48FEF7A2FF052299
:101E00000D211B48FEF7E5FF05220E211848FEF7BD
:101E1000E0FF05220F211648FEF7DBFF01218803B2
:101E2000FFF752F801A8FFF73CF92020ADF81000A9
:101E30000020ADF80800ADF80400ADF812004FF432
:101E40008270ADF806000020ADF80A00ADF80C0075
:101E50004FF40070ADF80E0001A90648FFF703F932
:101E600001210448FFF7EAF808B010BD000802405D
:101E7000000402400038004010B588B0044600203D
:101E80008DF81E008DF81F0003208DF81D00022024
:101E90008DF81C00C4B90121FFF706F83820069020
:101EA00006A92A48FEF74DFF062203212748FEF720
:101EB00090FF062204212548FEF78BFF062205210C
:101EC0002248FEF786FF19E001210420FEF7ECFF0F
:101ED0004FF4E050069006A91D48FEF732FF062297
:101EE0000A211B48FEF775FF06220B211848FEF752
:101EF00070FF06220C211648FEF76BFF0121C80374
:101F0000FEF7E2FF01A8FFF7CCF82020ADF81000A3
:101F10000020ADF80800ADF80400ADF812004FF451
:101F20008270ADF806000020ADF80A00ADF80C0094
:101F30004FF40070ADF80E0001A90648FFF793F8C2
:101F400001210448FFF77AF808B010BD00040240F0
:101F500000080240003C004010B588B00446002054
:101F60008DF81E008DF81F0003208DF81D00022043
:101F70008DF81C00CCB901211020FEF795FF6420DC
:101F8000069006A92A48FEF7DCFE05220221284811
:101F9000FEF71FFF052211462548FEF71AFF05220E
:101FA00006212348FEF715FF19E001211020FEF756
:101FB0007BFF4FF4E040069006A91D48FEF7C1FEE6
:101FC00005220C211A48FEF704FF05220D211848AE
:101FD000FEF7FFFE05220E211548FEF7FAFE01214D
:101FE0004803FEF791FF01A8FFF75BF82020ADF84A
:101FF00010000020ADF80800ADF80400ADF81200A4
:102000004FF48270ADF806000020ADF80A00ADF87C
:102010000C004FF40070ADF80E0001A90548FFF761
:1020200022F801210348FFF709F808B010BD0000AD
:10203000001002400034014010B588B00446002072
:102040008DF81E008DF81F0003208DF81D00022062
:102050008DF81C00D4B901212020FEF725FF4FF494
:102060006070069006A92F48FEF76BFE0522072137
:102070002C48FEF7AEFE052208212A48FEF7A9FEED
:10208000052209212748FEF7A4FE23E00121202094
:10209000FEF70AFF01218020FEF706FFC020069010
:1020A00006A92048FEF74DFE4FF40060069006A9F1
:1020B0001C48FEF746FE05220B211A48FEF789FE52
:1020C000052206211848FEF784FE0522072116483E
:1020D000FEF77FFE01210805FEF716FF01A8FEF7B7
:1020E000E0FF2020ADF810000020ADF80800ADF8AA
:1020F0000400ADF812004FF48270ADF80600002025
:10210000ADF80A00ADF80C004FF40070ADF80E0009
:1021100001A90648FEF7A7FF01210448FEF78EFF3C
:1021200008B010BD00140240001C024000500140E5
:1021300000B587B001214020FEF7B6FE00208DF8E3
:102140001A008DF81B0003208DF8190002208DF86D
:1021500018004FF4E040059005A91D48FEF7F1FD79
:1021600005220D211A48FEF734FE05220C211848DD
:10217000FEF72FFE05220E211548FEF72AFE01214B
:102180004805FEF7C1FE6846FEF78BFF2020ADF83C
:102190000C000020ADF80400ADF80000ADF80E0012
:1021A0004FF48270ADF802000020ADF80600ADF8E3
:1021B00008004FF40070ADF80A0069460548FEF7C4
:1021C00052FF01210348FEF739FF07B000BD0000B0
:1021D000001802400054014070B504460D461248F4
:1021E000844202D12846FFF75BFD1048844202D1A9
:1021F0002846FFF7C5FD0E48844202D12846FFF766
:102200003BFE0C48844202D12846FFF7A5FE0A484F
:10221000844202D12846FFF70FFF0848844201D1CB
:10222000FFF786FF70BD000000300140003800401D
:10223000003C004000340140005001400054014087
:1022400070B504460D46A58100BF02212046FEF769
:1022500001FF0028F9D000BF01212046FEF7FAFE59
:102260000028F9D000BF80212046FEF7F3FE0028A9
:10227000F9D1A089C0B270BD10B500214FF08040E7
:10228000FFF710F800214FF08040FFF72AF90121F5
:102290008807FFF707F810BD10B500200549087042
:1022A00000214FF08040FFF71CF901218807FEF75D
:1022B000F9FF10BD1100002010B500214FF0804043
:1022C000FEF7F0FF10BD000010B586B004460121F6
:1022D0000846FEF7E9FD01211020FEF715FE072252
:1022E00009211D48FEF775FD07220A211A48FEF74D
:1022F00070FD00208DF8060001208DF807000220F7
:102300008DF804000002009002208DF80500694657
:102310001148FEF716FD02208DF8040040020090DF
:1023200069460D48FEF70DFD02940020ADF80C0043
:10233000ADF80E00ADF81000ADF814000C20ADF8AB
:10234000120002A9054800F00FF90121034800F02E
:10235000F1F806B010BD000000000240001001407E
:1023600010B586B0044601214020FEF79DFD0121F5
:102370002020FEF7C9FD08220E211D48FEF729FD89
:10238000082209211A48FEF724FD00208DF80600D6
:1023900001208DF8070002208DF804004003009012
:1023A00002208DF8050069461148FEF7CAFC02209C
:1023B0008DF804000002009069460D48FEF7C1FC4C
:1023C00002940020ADF80C00ADF80E00ADF810003E
:1023D000ADF814000C20ADF8120002A9054800F079
:1023E000C3F80121034800F0A5F806B010BD0000B5
:1023F000001802400014014010B500BF202112480F
:1024000000F0A4F80028F9D00F4800F017F90F49A0
:10241000087000BF80210C4800F098F80028F9D01F
:102420000A480178084800F00EF908480078EE28BC
:1024300002D100200549087004480078DD2802D147
:1024400000200249087010BD00100140CB000020A0
:1024500070B504460025FFF71FFF00BFFFF70CFF14
:1024600000BF2021184800F071F818B9174800780B
:102470000028F6D015480078012804D10A22284601
:102480006D1C225406E0104800F0D8F8C2B228466D
:102490006D1C2254681E205C0A28DFD100222846C9
:1024A0006D1C2254FFF708FF08480078012808D166
:1024B000002228466D1C225405A000F0CBF8002015
:1024C00070BD0120FCE70000001401401100002055
:1024D000554152542036204E6F7420436F6E6E6506
:1024E000637465640A00000010B50446214605487F
:1024F00000F0A9F800BF8021024800F027F800286A
:10250000F9D010BD0014014010B504460BE014F8DA
:10251000011B074800F097F800BF8021044800F035
:1025200015F80028F9D020780028F0D110BD00005F
:102530000014014021B1828942F40052828104E0FA
:1025400082894DF6FF731A4082817047024600204F
:10255000B1F5007F00D100BF13880B400BB1012003
:1025600000E00020704700002DE9FF4705460E46B9
:102570000024A14600BFA046B08900B100BF2C8A4C
:1025800024F44054F08804432C82AC8941F20C605E
:102590008443B08831890843718908430443AC817E
:1025A000AC8A24F44074B0890443AC826846FEF7D8
:1025B000CBFC2048854202D01F48854202D1DDF87D
:1025C0000C9001E0DDF80890A88900F4004040B1CB
:1025D00009EBC90000EB091031684900B0FBF1F7C5
:1025E00007E009EBC90000EB091031688900B0FB76
:1025F000F1F76420B7FBF0F004012009642101FB2E
:102600001078A88900F4004040B1322000EBC800E7
:10261000B0FBF1F000F00700044308E0322000EBCB
:1026200008106421B0FBF1F000F00F0004432C818E
:10263000BDE8FF8700100140001401400146888872
:10264000C0F308007047C1F308028280704700BFE2
:10265000FEE700000FB4054B10B503A9044A029829
:1026600000F0D4F810BC5DF814FB0000B12F000896
:10267000080100202DED020B019820F00040019090
:102680009DED000B02B0704702E008C8121F08C1A0
:10269000002AFAD170477047002001E001C1121FE3
:1026A000002AFBD1704700002DE9FF5FDDE9022021
:1026B000010DDDF838B0024318D044F61050A1F2F5
:1026C000FF3141430D140F98012820D0A5EB0B00DA
:1026D000401C5FEA000A4FF00004474EDFF81C91EF
:1026E000A046504616D5CAF1000728E00F980124ED
:1026F00043A2012808D0002100980F9BC0E90021C7
:10270000C0E90243BDE8FF9F6FEA0B01F4E7CBF19C
:102710000000DEE7074612E0F80707D022463346FE
:1027200040464946FDF7E5FE804689462246334647
:1027300010461946FDF7DDFE04460E467F10002FB9
:10274000EAD1DDE90201BAF1000F42464B4602DA56
:10275000FDF7CFFE01E0FDF73EFF04460E460022E6
:10276000284BFDF763FD03D84FF0FF30014607E02B
:102770000022254B20463146FDF714FEFDF79AFF57
:10278000102409E0002C0ADB0A220023FDF77CFD5F
:10279000019B30321A55641E50EA0102F2D1641CCA
:1027A000019AC4F1110314440F9A012A03D00122A3
:1027B00008430DD10AE0084304D000204FF0110B6C
:1027C0000F9080E7A3EB0B056D1E0DE05B4504DD6C
:1027D0004FF0000205F1010504E003DA4FF00002BA
:1027E000A5F10105002AECD000980F99C0E902314B
:1027F000C0E9004586E70000000024400000F03FEB
:10280000300000000000F0430000E03F2DE9FF4FE2
:1028100095B09B468946064600250FE2252877D1CC
:1028200000242746F84A0121059400E0044316F8E5
:10283000013F203B01FA03F01042F7D130782A28FB
:1028400011D06FF02F033078A0F13002092A16D88A
:10285000059A44F0020402EB820203EB42021044A8
:10286000761C0590EFE759F8042B0592002A03DA4D
:10287000504244F40054059044F00204761C307831
:102880002E2816D116F8010F44F004042A280DD082
:102890006FF02F023078A0F13003092B09D807EB35
:1028A000870302EB4303C718761CF3E759F8047B50
:1028B000761C30786C280FD006DC4C2817D068289E
:1028C0000DD06A2814D104E0742810D07A280FD1D2
:1028D0000DE044F400140AE044F4801401E044F4F0
:1028E00040147278824202D104F58014761C761C62
:1028F000307866280BD013DC582877D009DC002804
:1029000075D04528F6D04628F4D047281AD19DE145
:1029100018E0632835D0642879D0652812D195E174
:10292000702873D008DC6728F1D069286FD06E2832
:102930000DD06F2806D1B5E073282CD0752875D03E
:10294000782874D05A46179990476D1C75E1C4F3E6
:102950000250022809D003280DD0D9F8001004280D
:102960000DD00D6009F1040967E1D9F80010EA17EC
:10297000C1E90052F6E7D9F800100D80F2E70D70BA
:10298000F0E719F8041B8DF8001000208DF8010005
:10299000EA46012003E059F804AB4FF0FF3061072D
:1029A0004FF0000102D40DE008F101018846B94260
:1029B0000FDA8045F8DB1AF808100029F4D108E096
:1029C00008F1010188468142FADB1AF80810002953
:1029D000F6D105985B46A0EB080721463846179AC2
:1029E00000F094FA284400EB080507E04DE029E1E7
:1029F0000DE01AF8010B5A4617999047B8F10108F3
:102A0000F7D25B4621463846179A13E142E00A2284
:102A10000092C4F302524FF0000A022A08D059F87B
:102A200004CB032A4FEAEC710AD00DE029E02AE03A
:102A300009F1070121F00702F2E802C1914609E01D
:102A40000FFA8CFC4FEAEC71042A03D14FFA8CFC8C
:102A50004FEAEC71002907DA0A460021DCF1000C8C
:102A600061EB02012D2202E0220504D52B228DF814
:102A70000420012203E0E20701D02022F7E790467C
:102A800059E00A2102E010220DE010214FF0000A67
:102A900000910BE010224FF0000A44F004040827D4
:102AA000009203E008224FF0000A0092C4F30252A1
:102AB000022A05D059F804CB0021032A08D009E0E6
:102AC00009F1070121F00702F2E802C1914605E091
:102AD0001FFA8CFC042A01D10CF0FF0C4FF0000807
:102AE000220728D5702806D0009B83F0100353EAF4
:102AF0000A0305D00EE040228DF80420012208E0F0
:102B00005CEA010206D030228DF804208DF8050021
:102B100002229046009B83F0080353EA0A030AD17D
:102B20005CEA010201D1620705D530228DF804204C
:102B30004FF001087F1E582804D034A003900EA83F
:102B400002900DE036A0F9E753466046009AFDF783
:102B50009BFB84460398825C0298401E02900270A0
:102B60005CEA0100F0D1029806A9081A00F1200AD7
:102B7000600702D524F4803400E00127574502DDC8
:102B8000A7EB0A0000E0002000EB0A010090059886
:102B90004144401A0590E00306D45B462146179A4B
:102BA000059800F0B3F90544002706E001A85A464D
:102BB000C05D179990476D1C7F1C4745F6DBE0030D
:102BC0000CD55B462146179A059800F09FF90544FD
:102BD00004E030205A46179990476D1C0099481E12
:102BE00000900029F5DC08E0029802995A46007826
:102BF000491C0291179990476D1CBAF10001AAF186
:102C0000010AF1DC65E100000928010030313233AE
:102C10003435363738396162636465660000000018
:102C20003031323334353637383941424344454602
:102C30000000000000F058F90544761C30780028A8
:102C40007FF4ECAD19B02846BDE8F08F620700D4E0
:102C5000062709F1070222F0070CFCE80223E146EF
:102C600003F000485FEA080C02D00FF2702C0DE070
:102C70005FEA045C02D50FF2682C07E05FEAC47CCF
:102C800002D00FF2602C01E0AFF2700C4FF0FF3871
:102C900023F00043CDF850C065280CD006DC452851
:102CA00009D046281DD047283DD13DE0662818D0E0
:102CB00067287ED138E00021112F01DB112000E0D0
:102CC000781CCDE9000106A90EA8FFF7EDFCDDE9AF
:102CD0000F010E9A03910021009207F1010A04915D
:102CE0004DE04FF000400097CDE9011006A90EA875
:102CF000FFF7DAFCDDE90F0203920E9B1199002227
:102D0000DDF80CA00093049211B9791C00EB010AC4
:102D1000B7EB0A0004D4C0F1FF3007F1010A0490B8
:102D2000AAEB0700019044E0012F00DA01270021FF
:102D3000112F01DD112000E03846CDE9000106A980
:102D40000EA8FFF7B1FCDDE90F010E9A03910021F7
:102D500004910092BA4621070CD40399514500DA38
:102D60008A46BAF1010F05DD009AAAF10101515C12
:102D7000302908D0B84202DA10F1040F06DA012136
:102D8000CDE9011015E0AAF10101E9E7002805DC11
:102D9000049901440491AAEB000102E0411C514551
:102DA00000DD8A460499401A401C01904FF0004013
:102DB0000290200704D40198504501DBCDF804802F
:102DC00000208DF84F0002980DF14F07B0F1004F31
:102DD00025D02B200E9002984FF0020800280CDA24
:102DE000404202902D200E9007E00A210298FDF744
:102DF00035FA3031029007F8011DB8F10001A8F151
:102E00000108F2DC02980028EFD1791E0E980870B4
:102E1000307800F0200040F0450007F8020D12A8BD
:102E2000C01B00F107081498007800B1012000EBE6
:102E30000A01019801EBE07105984144401A401ED7
:102E40000590E00306D45B462146179A059800F0EA
:102E50005DF805441498007818B15A4617999047C0
:102E60006D1CE00324D55B462146179A059800F0B7
:102E70004DF805441CE00498002807DBDDE9030158
:102E8000884203DD0098405C179901E017993020D3
:102E90005A469047049805F10105401C049001989A
:102EA000401E019004D12E205A46179990476D1C60
:102EB000BAF10001AAF1010ADDDC05E017F8010B07
:102EC0005A46179990476D1CB8F10001A8F1010806
:102ED000F4DC5B462146179A0598ABE62D0000000E
:102EE0002B000000200000002DE9F04104460025E1
:102EF0001E461746880404D405E039462020B04712
:102F00006D1C641EF9D52846BDE8F0812DE9F0411D
:102F1000044600251E469046C80301D5302700E030
:102F20002027880404D505E041463846B0476D1C8B
:102F3000641EF9D52846BDE8F08110B50446206826
:102F4000012802D1204600F032FA6068012802D13F
:102F5000204600F0C5FAA068012802D1204600F002
:102F6000B9FBE068012802D1204600F053F920693E
:102F7000012802D1204600F00DFB6069012802D132
:102F8000204600F08BF9A069012801D100F0A8FBD0
:102F900010BD10B50446606B012802D1204600F038
:102FA0001FFAA06B012802D1204600F013F810BDD3
:102FB00070B504460D4600BF80210548FFF7C6FAEC
:102FC0000028F9D0E1B20248FFF73DFB204670BD72
:102FD0000010014010B52DED048B82B004467648F8
:102FE0000078A8B3754890ED000ABDEEC00A10EE57
:102FF000100A0A2190FBF1F090FBF1F201FB1200A4
:1030000030306F490870084600786E4908736B4885
:1030100090ED000ABDEEC00A10EE100A0A2190FBE6
:10302000F1F201FB12003030654908700846007863
:103030006449487300204FF47841634B614ACDE9FD
:10304000001046210A20FEF75FFD00205A49087053
:103050005E480078C8B3594890ED090ADFED5C0A74
:10306000B4EEE00AF1EE10FA0BDD00204FF6E0714D
:10307000554B584ACDE9001028210A20FEF744FD9F
:1030800020E04E4890ED090ADFED530AB4EEE00A65
:10309000F1EE10FA0BD200204FF6E0714A4B4F4A86
:1030A000CDE9001028210A20FEF72EFD0AE00020BD
:1030B0004FF6E071444B4A4ACDE9001028210A201E
:1030C000FEF722FD0020414908704648007800289C
:1030D00069D045480068022862DD384890ED0A0A48
:1030E0004248D0ED000A30EEC00ABDEEC00A4048AA
:1030F00080ED000A314890ED0B0A3E48D0ED000A01
:1031000030EEC00ABDEEC00A3B4880ED000A3848E8
:103110000068FDF767F841EC190BB0EE490AF0EED4
:10312000690AFFF7A7FAB0EE408AF0EE608A9FEDD9
:10313000330B53EC102B51EC180BFDF777F824D21E
:103140002D480068FDF74EF841EC190BB0EE490A26
:10315000F0EE690AFFF78EFAB0EE408AF0EE608A70
:103160009FED280B53EC102B51EC180BFDF75EF87C
:103170000BD200204FF47841134B244ACDE90010C4
:103180000A210846FEF7C0FC0AE000204FF478410F
:103190000D4B1F4ACDE900100A210846FEF7B4FC8A
:1031A0000020104908700020A063E0630120E06265
:1031B00002B0BDEC048B10BDC80000201801002037
:1031C000300000201C000020EC000020C90000207E
:1031D0000000484438000020000048C44C00002093
:1031E00060000020CA000020C400002074000020FD
:1031F0008C000020780000209000002000000000DB
:1032000000C062400000000000405540AC000020BB
:103210009800002010B5044616A0FDF7E9FF1748F6
:10322000FDF7DEFF30B11548FDF7A2FA10B101201D
:103230001349087013A0FDF7DBFF1048FDF7D0FF1E
:1032400030B10E48FDF794FA10B101200F49087013
:103250000FA0FDF7CDFF0948FDF7C2FF30B10748C9
:10326000FDF786FA10B101200B490870002020629A
:1032700010BD000041542B54454D50006801002002
:10328000C800002041542B4143430000C9000020E6
:1032900041542B4D41470000CA00002010B50446A0
:1032A000606B20B9A06B10B9204600F065F8606B28
:1032B000012805D1E06B012802D1204600F05FF81B
:1032C0002046FFF766FE10BD10B5044620680128B1
:1032D00005D1E069012802D1204600F032F860688B
:1032E000012805D1206A012802D1204600F034F8D7
:1032F000A068012805D1606A012802D1204600F0AB
:1033000030F8E068012808D12069012805D1A06AB9
:10331000012802D1204600F029F8606901280CD16B
:10332000E06A012803D1204600F00BF805E0206B8D
:10333000012802D1204600F027F82046FFF7FDFDC6
:1033400010BD0021016001214160816041690129B6
:1033500001D1002141617047002141600121C1601C
:103360007047002181600121016170470021C16027
:1033700001610121416170470121416370470021D2
:103380004163012181637047002141610121816115
:10339000704710B5FDF73CFF4FF41650FEF794FF51
:1033A0004FF41650FEF7DCFFFDF788FF10BD38B56F
:1033B0000446FFF7EEFFFEF7C7F947F6EF30FEF7DA
:1033C0009FF90220FEF7E0FB002032231A461E215F
:1033D00000900846FEF76EF90120E06138BD00005C
:1033E0001CB50446274890ED000AB5EEC00AF1EE80
:1033F00010FA30D1244890ED000AB5EEC00AF1EE83
:1034000010FA28D1214890ED000AB5EEC00AF1EE7D
:1034100010FA20D11E48006802281CD11D4890EDEA
:103420000A0A184880ED000A1A4890ED0B0A16485F
:1034300080ED000A174890ED0C0A144880ED000A50
:1034400000204FF47841144B14A2CDE900100A215A
:103450000846FEF759FB0F4890ED0A0A114880ED27
:10346000000A0C4890ED0B0A0F4880ED000A09484D
:1034700090ED0C0A0D4880ED000A0020A0620120AA
:10348000E0631CBD74000020780000207C00002058
:10349000C400002018010020EC0000205374617269
:1034A000742121008000002084000020880000207A
:1034B00092B00120019000200290039004900590AA
:1034C00006900790089009900A900B900E900F902C
:1034D0000C9010900D9002E001A8FFF7F5FEFBE7BD
:1034E00010B504461B480068401C1A4908600020BB
:1034F000194908701949087019490870FEF7CCFE7F
:10350000FEF7BAFE00BF174800780028FBD016A0CF
:10351000FDF76EFE1548FDF763FE10B114A0FDF730
:1035200067FE1248FDF75CFE10B114A0FDF760FEC7
:103530000E48FDF755FE10B113A0FDF759FE0B48DC
:10354000FDF74EFE08B10020E0620020E06101209E
:10355000206210BDC4000020C8000020C900002067
:10356000CA00002011000020415400006801002022
:1035700041542B54454D502C4500000041542B41E3
:1035800043432C450000000041542B4D41472C453E
:103590000000000010B52DED068B84B004463248C3
:1035A00090ED000A10EE101A0846FCF72CFE41ECD4
:1035B000180B53EC182B2DA0FFF74CF82A4890ED70
:1035C000090A10EE101A0846FCF71DFE41EC180B14
:1035D000254890ED080A10EE101A0846FCF713FE75
:1035E00041EC190B204890ED070A10EE101A08461E
:1035F000FCF709FE41EC1A0B8DED028B8DED009B63
:1036000053EC1A2B1FA0FFF725F8174890ED0C0A72
:1036100010EE101A0846FCF7F6FD41EC180B1248A4
:1036200090ED0B0A10EE101A0846FCF7ECFD41EC89
:10363000190B0D4890ED0A0A10EE101A0846FCF717
:10364000E2FD41EC1A0B8DED028B8DED009B53ECEE
:103650001A2B16A0FEF7FEFF002060620120A06278
:1036600004B0BDEC068B10BD180100200D54656D33
:1036700070657261747572653D252E336620432036
:103680000A0000000D414343783D252E33662C206F
:10369000414343793D252E33662C204143437A3DF7
:1036A000252E3366206D670A000000000D4D41474E
:1036B000783D252E33662C204D4147793D252E330C
:1036C000662C204D41477A3D252E3366206D47619B
:1036D0000A0000000021C161012141627047000021
:1036E00010B502A0FEF7B6FF10BD000042796521BB
:1036F000200A0000000000000000000000000000A0
:103700000000000000000000001000100010001079
:103710000010001000000010000000000028002829
:103720000028000000000000000000000000000071
:1037300000240024007C00240048007C004800484D
:1037400000000000003800540050003800140054FD
:1037500000540038001000000020005400580030D1
:103760000028005400140008000000000010002889
:103770000028001000340048004800340000000019
:103780000010001000100000000000000000000009
:103790000000000000080010002000200020002091
:1037A0000020002000100008002000100008000881
:1037B0000008000800080008001000200010003871
:1037C00000100028000000000000000000000000C1
:1037D0000000000000100010007C0010001000002D
:1037E00000000000000000000000000000000000D9
:1037F0000000001000100010000000000000000099
:103800000000003800000000000000000000000080
:103810000000000000000000000000100000000098
:103820000008000800100010001000100020002008
:1038300000000000003800440044005400440044EC
:10384000004400380000000000100030005000105C
:1038500000100010001000100000000000380044AC
:1038600000440004000800100020007C000000005C
:10387000003800440004001800040004004400382C
:103880000000000000080018002800280048007C04
:103890000008000800000000007C004000400078A4
:1038A0000004000400440038000000000038004418
:1038B000004000780044004400440038000000004C
:1038C000007C0004000800100010002000200020F0
:1038D0000000000000380044004400380044004468
:1038E0000044003800000000003800440044004458
:1038F000003C00040044003800000000000000000C
:103900000010000000000000000000100000000097
:103910000000000000000010000000000000001087
:103920000010001000000000000C003000400030CB
:10393000000C000000000000000000000000007CFF
:103940000000007C000000000000000000000000FB
:103950000060001800040018006000000000000073
:10396000003800440004000800100010000000109F
:103970000000000000380044004C0054005C00408F
:103980000040003800000000001000280028002837
:103990000028007C0044004400000000007800443F
:1039A0000044007800440044004400780000000017
:1039B000003800440040004000400040004400380F
:1039C000000000000070004800440044004400442F
:1039D0000048007000000000007C00400040007CB7
:1039E000004000400040007C00000000007C0040DF
:1039F000004000780040004000400040000000000F
:103A00000038004400400040005C0044004400389E
:103A100000000000004400440044007C00440044D6
:103A200000440044000000000038001000100010A6
:103A30000010001000100038000000000004000416
:103A400000040004000400040044003800000000EA
:103A50000044004800500060005000480048004406
:103A600000000000004000400040004000400040D6
:103A70000040007C000000000044006C006C00541A
:103A8000004400440044004400000000004400647E
:103A9000006400540054004C004C0044000000003E
:103AA000003800440044004400440044004400380E
:103AB000000000000078004400440044007800400A
:103AC0000040004000000000003800440044004472
:103AD0000044004400540038000400000078004412
:103AE0000044004400780048004800440000000002
:103AF0000038004400400030000800040044003852
:103B000000000000007C00100010001000100010E9
:103B10000010001000000000004400440044004475
:103B20000044004400440038000000000044004409
:103B300000440028002800280010001000000000A9
:103B400000440044005400540054006C0028002835
:103B50000000000000440028002800100010002889
:103B60000028004400000000004400440028002811
:103B7000001000100010001000000000007C000485
:103B800000080010001000200040007C0000000031
:103B9000001800100010001000100010001000109D
:103BA000001000180020002000100010001000106D
:103BB0000008000800000000003000100010001095
:103BC000001000100010001000100030001000283D
:103BD0000028004400000000000000000000000079
:103BE00000000000000000000000000000000000D5
:103BF000000000FE00200010000000000000000097
:103C00000000000000000000000000000038004438
:103C1000003C0044004C0034000000000040004024
:103C20000058006400440044006400580000000094
:103C3000000000000038004400400040004400380C
:103C400000000000000400040034004C0044004464
:103C5000004C003400000000000000000038004468
:103C6000007C00400044003800000000000C001000
:103C7000007C001000100010001000100000000078
:103C8000000000000034004C00440044004C0034AC
:103C900000040078004000400058006400440044E4
:103CA00000440044000000000010000000700010FC
:103CB00000100010001000100000000000100000B4
:103CC000007000100010001000100010001000E044
:103CD0000040004000480050006000500048004490
:103CE0000000000000700010001000100010001014
:103CF00000100010000000000000000000780054D8
:103D00000054005400540054000000000000000063
:103D100000580064004400440044004400000000D7
:103D20000000000000380044004400440044003813
:103D3000000000000000000000580064004400443F
:103D40000064005800400040000000000034004CB7
:103D500000440044004C0034000400040000000053
:103D60000058006400400040004000400000000097
:103D70000000000000380044003000080044003813
:103D8000000000000020002000780020002000201B
:103D90000020001800000000000000000044004463
:103DA00000440044004C003400000000000000000B
:103DB00000440044002800280028001000000000F3
:103DC00000000000005400540054006C002800283B
:103DD0000000000000000000004400280010001057
:103DE00000280044000000000000000000440044DF
:103DF00000280028001000100010006000000000E3
:103E0000007C0008001000200040007C0000000042
:103E100000180010001000100020002000100010FA
:103E2000001000180010001000100010001000100A
:103E300000100010001000100030001000100010E2
:103E40000008000800100010001000300000000002
:103E500000000074004C00000000000000000000A2
:103E60000000000000000000000000000000000052
:103E70000000000000000000000000000000000042
:103E8000000000000000000C000C000C000C000CF6
:103E9000000C000C000C000C000C000C0000000CCE
:103EA000000C0000000000000000001B001B001BB5
:103EB000001B001B000000000000000000000000CC
:103EC0000000000000000000000000000000801959
:103ED000801980198019C07FC07F80190033C07F8E
:103EE000C07F0033003300330033000000000000C7
:103EF0000000001E003F807580650074003C001EBD
:103F000000078005806580658075003F001E000405
:103F1000000400000000007000D840D8C0D880D94C
:103F200000730006000C801BC036C066C046C00689
:103F300080030000000000000000001E003F00336E
:103F400000330033001E000CC03CC06680638061FB
:103F50008063C03E801C0000000000000000000CD8
:103F6000000C000C000C000C000000000000000021
:103F70000000000000000000000000000000000041
:103F8000800000010003000600060004000C000C85
:103F9000000C000C000C000C0004000600060003DE
:103FA00000018000002000100018000C000C00042C
:103FB0000006000600060006000600060004000CCD
:103FC000000C0018001000200000000C002D003F25
:103FD000001E003300000000000000000000000090
:103FE00000000000000000000000000000000000D1
:103FF0000000000C000C000C000CC0FFC0FF000C07
:10400000000C000C000C000000000000000000008C
:1040100000000000000000000000000000000000A0
:1040200000000000000000000000000C000C000474
:104030000004000800000000000000000000000074
:10404000000000000000001E001E00000000000034
:104050000000000000000000000000000000000060
:104060000000000000000000000000000000000050
:104070000000000C000C0000000000000000000325
:10408000000300030006000600060006000C000CFA
:10409000000C000C001800180018000000000000C0
:1040A0000000001E003F0033806180618061806DF0
:1040B000806D8061806180610033003F001E0000E0
:1040C0000000000000000006000E001E0036002662
:1040D00000060006000600060006000600060006B0
:1040E00000060000000000000000001E003F80737A
:1040F00080618061800100030006000C0018003020
:104100000060807F807F0000000000000000001C35
:10411000003E006300630003000E000E00038001F8
:10412000800180618073003F001E000000000000DD
:1041300000000006000E000E001E001E00160036D5
:1041400000360066807F807F0006000600060000C3
:10415000000000000000007F007F00600060006041
:10416000006E007F80638001800180618073003F6A
:10417000001E0000000000000000001E003F803311
:1041800080610060006E007F80738061806180616B
:104190008033003F001E0000000000000000807F10
:1041A000807F80010003000300060006000C000C65
:1041B000000C0008001800180018000000000000A3
:1041C0000000001E003F8063806180610021001EAE
:1041D000003F8061806180618061003F001E0000BF
:1041E000000000000000001E003F0073806180613D
:1041F00080618073803F801D800180610073003F7B
:10420000001E000000000000000000000000000090
:104210000000000C000C0000000000000000000086
:104220000000000C000C0000000000000000000076
:104230000000000000000000000C000C0000000066
:10424000000000000000000C000C00040004000846
:10425000000000000000000080008003000E003815
:1042600000600038000E80038000000000000000A5
:104270000000000000000000000000000000807F3F
:10428000807F00000000807F807F00000000000031
:10429000000000000000000000000000000000001E
:1042A00000400070001C000780010007001C007027
:1042B0000040000000000000000000000000001F9F
:1042C000803FC071C060C000C00180030007000EC5
:1042D000000C000C0000000C000C000000000000AE
:1042E0000000001E003F803180718063806F806D10
:1042F000806D806F806700600032003E001C00000F
:10430000000000000000000E000E001B001B001B40
:10431000001B80318031803F803F8031C060C060B1
:10432000C0600000000000000000007C007E006310
:10433000006300630063007E007E00638061806133
:104340008063007F007E0000000000000000001E6F
:10435000003F8031806100600060006000600060AC
:10436000006080618031003F001E000000000000FE
:104370000000007C007F0063806380618061806159
:1043800080618061806100630063007E007C0000CA
:10439000000000000000807F807F006000600060FF
:1043A0000060007F007F0060006000600060807F30
:1043B000807F0000000000000000807F807F0060A0
:1043C000006000600060007F007F006000600060AF
:1043D0000060006000600000000000000000001E9F
:1043E000003F803180610060006000608063806316
:1043F000806180618031803F001E0000000000006D
:104400000000806180618061806180618061807F67
:10441000807F806180618061806180618061000057
:10442000000000000000003F003F000C000C000CEA
:10443000000C000C000C000C000C000C000C003FE9
:10444000003F0000000000000000800180018001AA
:104450008001800180018001800180018061806194
:104460008073003F001E0000000000000000C060DC
:104470008061006300660066006C0078007C006666
:104480000066006380618061C06000000000000081
:10449000000000600060006000600060006000607C
:1044A00000600060006000600060807F807F00002E
:1044B000000000000000C071C071C07BC07AC06AFB
:1044C000C06AC06EC064C060C060C060C060C060D0
:1044D000C0600000000000000000807180718079E1
:1044E00080798079806D806D806D80658067806760
:1044F0008067806380630000000000000000001EF1
:10450000003F0033806180618061806180618061F3
:10451000806180610033003F001E00000000000049
:104520000000007E007F8063806180618061806325
:10453000007F007E0060006000600060006000009E
:10454000000000000000001E003F00338061806119
:104550008061806180618061806580670033803F19
:10456000401E0000000000000000007E007F80630D
:10457000806180618063007F007E0066006300636D
:1045800080618061C0600000000000000000000E3B
:10459000001F8031803100300038001E000780038A
:1045A000806180618031003F001E0000000000003B
:1045B0000000C0FFC0FF000C000C000C000C000C41
:1045C000000C000C000C000C000C000C000C000097
:1045D0000000000000008061806180618061806176
:1045E0008061806180618061806180618073003F53
:1045F000001E0000000000000000C060C060C0603D
:10460000803180318031001B001B001B001B000E1D
:10461000000E000E00040000000000000000C0C0FA
:10462000C0C0C0C0C0C0C0C0C0CC804C804C805E88
:104630008052805280738061806100000000000021
:104640000000C0C0806080610033003B001E000C91
:10465000000C001E001F003B80718061C0C0000084
:10466000000000000000C0C08061806100330033A2
:10467000001E001E000C000C000C000C000C000CB6
:10468000000C0000000000000000803F803F80011F
:10469000000300030006000C000C00180018003096
:1046A0000060807F807F000000000000000F000F8E
:1046B000000C000C000C000C000C000C000C000C9A
:1046C000000C000C000C000C000C000C000F000F84
:1046D0000000001800180018000C000C000C000C62
:1046E00000060006000600060003000300030000A9
:1046F00000000000001E001E000600060006000666
:104700000006000600060006000600060006000679
:1047100000060006001E001E0000000C000C001E1B
:10472000001200330033806180610000000000004F
:104730000000000000000000000000000000000079
:104740000000000000000000000000000000000069
:10475000000000000000000000000000E0FF00007A
:10476000000000380018000C0000000000000000ED
:104770000000000000000000000000000000000039
:104780000000000000000000000000000000001F0A
:10479000803F80618001801F803F80618063807FD7
:1047A000C0380000000000000000006000600060F1
:1047B0000060006E007F8073806180618061806135
:1047C0008073007F006E0000000000000000000009
:1047D000000000000000001E003F80738061006048
:1047E000006080618073003F001E00000000000038
:1047F00000008001800180018001801D803F807366
:1048000080618061806180618073803F801D0000D5
:104810000000000000000000000000000000001E7A
:10482000003F00738061807F807F00608071003F67
:10483000001E0000000000000000C007C00F000CB8
:10484000000C807F807F000C000C000C000C000C22
:10485000000C000C000C0000000000000000000034
:1048600000000000801D803F807380618061806156
:1048700080618073803F801D80018063007F003EE7
:1048800000000060006000600060006F807F807149
:1048900080618061806180618061806180610000F1
:1048A0000000000000000006000600000000003EBE
:1048B000003E000600060006000600060006000690
:1048C00000060000000000000006000600000000D6
:1048D000003E003E00060006000600060006000638
:1048E0000006000600060046007E003C0000006056
:1048F000006000600060806100630066006C007C06
:104900000076006300638061C0600000000000006A
:104910000000003E003E00060006000600060006FD
:10492000000600060006000600060006000600005D
:10493000000000000000000000000000000080DD1A
:10494000C0FFC0CEC0CCC0CCC0CCC0CCC0CCC0CCD2
:10495000C0CC0000000000000000000000000000CB
:104960000000006F807F8071806180618061806164
:104970008061806180610000000000000000000094
:10498000000000000000001E003F80738061806115
:10499000806180618073003F001E00000000000005
:1049A0000000000000000000006E007F8073806146
:1049B0008061806180618073007F006E00600060B4
:1049C000006000600000000000000000801D803FCB
:1049D000807380618061806180618073803F801D11
:1049E00080018001800180010000000000000000C3
:1049F00000000067803F0039003000300030003098
:104A00000030003000300000000000000000000016
:104A1000000000000000001E803F80610060007FF9
:104A2000803F80018061007F001E000000000000C8
:104A300000000000000800180018007F007F001828
:104A400000180018001800180018801F800F0000C0
:104A50000000000000000000000000000000806175
:104A60008061806180618061806180618063807F1E
:104A7000803D000000000000000000000000000079
:104A80000000C060803180318031001B001B001BA2
:104A9000000E000E000600000000000000000000F4
:104AA00000000000000080DD80DD80DD0055005545
:104AB000005500770077002200220000000000006F
:104AC000000000000000000000008061003300339F
:104AD000001E000C000C001E00330033806100003B
:104AE0000000000000000000000000008061806104
:104AF000803100330033001B001B001B000E000E32
:104B0000000E001C007C007000000000000000008F
:104B10000000C07FC07F800100030006000C001869
:104B20000030C07FC07F00000000000080038007CD
:104B300000060006000600060006000E001C001C11
:104B4000000E00060006000600060006800780032F
:104B50000006000600060006000600060006000625
:104B60000006000600060006000600060006000615
:104B7000000600060038003C000C000C000C000C85
:104B8000000C000E00070007000E000C000C000CCB
:104B9000000C000C003C0038000000000000000089
:104BA0000000000000008038807F00470000000007
:104BB00000000000000000000000000000000000F5
:104BC00000000000000000000000000000000000E5
:104BD00000000000000000000000000000000000D5
:104BE00000000000000000000000000000000000C5
:104BF000E003E003E003E003E003E003E003E0039D
:104C0000C003C003C001C001C001C001C001000059
:104C100000000000E003E003E003000000000000EB
:104C2000000000003C1E3C1E3C1E3C1E3C1E3C1E68
:104C30003C1E00000000000000000000000000001A
:104C40000000000000000000000000000000000064
:104C50000000000000000000CE01CE03DE039E0332
:104C60009C039C07FF3FFF7F3807380F780F780FB2
:104C7000780EFFFFFFFFF01EF01CE01CE03CE03D63
:104C8000E03900000000000000000000FC03FE0FFF
:104C9000EE1FE01EE01EE01EE01EE01FE00FE0073A
:104CA000F003FC01FE01FE01FE01FE01FE01FE011A
:104CB000FE3DFC3FF00FE001E001000000000000BD
:104CC000033E07F78FE78EE79EE3BCE3B8E7F8E71C
:104CD000F0F7E03FC001FF03FF07F307F30FF31EF8
:104CE000F33CF338F3787FF03FE000000000000071
:104CF00000000000E007F80F780F781F781F781F7A
:104D0000780FF00FE00F801FC37FC3FBE7F3F7F1CD
:104D1000F7F0FFF07FF03EF87F7CFF3FEF1F0000D1
:104D20000000000000000000E003E003E003E003F7
:104D3000E003C003C001000000000000000000000C
:104D40000000000000000000000000000000000063
:104D50000000000000000000000000003F007C0098
:104D6000F001E001C003C00780078007800F000F3B
:104D7000000F000F000F000F000F800F800780074B
:104D8000C007C003E001F0017C003F000F000000FD
:104D9000007E001FC007C003E001F001F000F0003A
:104DA000F800780078007800780078007800F80043
:104DB000F000F000F001E001C003C007001F007E1A
:104DC00000780000E003C003C001CE39FF3F7F3F01
:104DD00020037003F807780F3C1F3806000000001E
:104DE00000000000000000000000000000000000C3
:104DF00000000000000000000000000000000000B3
:104E000000000000C001C001C001C001C001C0011C
:104E1000C001FFFFFFFFC001C001C001C001C00110
:104E2000C0010000000000000000000000000000C1
:104E30000000000000000000000000000000000072
:104E40000000000000000000000000000000E0037F
:104E5000E003E003E003E001E001E001C0018003C2
:104E60000000000000000000000000000000000042
:104E7000000000000000FE3FFE3F000000000000B8
:104E80000000000000000000000000000000000022
:104E90000000000000000000000000000000000012
:104EA0000000000000000000000000000000000002
:104EB000000000000000E003E003E003E003000066
:104EC00000000000000000000F000F001E001E0088
:104ED0003C003C0078007800F000F000E001E001C8
:104EE000C003C00380078007000F000F001E001ED4
:104EF000003C003C0078007800F00000F007F80F5C
:104F00007C1F3E3E1E3C1F7C1F7C0F780F780F7865
:104F10000F780F780F780F781F7C1F7C1E3C3E3E69
:104F20007C1FF80FF00700000000000000000000E8
:104F3000F000F007F03FF03FF001F001F001F00168
:104F4000F001F001F001F001F001F001F001F001D9
:104F5000F001F001F001FF3FFF3F00000000000002
:104F600000000000E00FF83F7C3C3C003E003E00AB
:104F70003E003C003C007C00F800F001E003C0076C
:104F80008007000F001E003E003CFE3FFE3F000079
:104F90000000000000000000F00FF81F7C1C3E0025
:104FA0003E003E003C003C00F800F00FF80F7C0093
:104FB0003E001E001E001E001E003E007C1CF81F4E
:104FC000E01F000000000000000000007800F80072
:104FD000F800F801F803F807F807780F781E781E34
:104FE000783C78787878FFFFFFFF780078007800C9
:104FF0007800780078000000000000000000000049
:10500000FC1FFC1FFC1F001E001E001E001E001EB9
:10501000E01FF81FFC007C003E003E001E003E002A
:105020003E003C007C1CF81FE01F00000000000058
:1050300000000000FC01FE078E0F001F001E003E56
:10504000003C003CF83DFC3F3E7F1F7E0F3C0F3C88
:105050000F3C0F3C0F3E1F1E3E1FFC0FF0030000D5
:105060000000000000000000FF3FFF3FFF3F0F0077
:105070001E001E003C0038007800F000F000E00147
:10508000E001C003C0038007800F800F000F001FE6
:10509000001F00000000000000000000F807FC0FE7
:1050A0003E1F1E1E1E3E1E3E1E1E3C1FF80FF0071A
:1050B000F80FFC1E3E3E1F3C1F7C0F7C0F7C1F3CEC
:1050C0003E3FFC1FF0070000000000000000000051
:1050D000F007F80F7C1E3E3C1E3C1F7C1F7C1F7C93
:1050E0001F7C1F3C3F3EFF1FEF071F001E001E00DE
:1050F0003E003C00F838F03FE01F000000000000D8
:10510000000000000000000000000000000000009F
:10511000E003E003E003E003000000000000000003
:10512000000000000000E003E003E003E0030000F3
:10513000000000000000000000000000000000006F
:1051400000000000E003E003E003E00300000000D3
:1051500000000000000000000000E003E003E003A6
:10516000E003E001E001E001C00380030000000073
:10517000000000000000000003000F003F00FC00E2
:10518000F003C00F003F00FE003FC00FF003FC0023
:105190003F000F00030000000000000000000000BE
:1051A00000000000000000000000000000000000FF
:1051B00000000000FFFFFFFF000000000000FFFFF5
:1051C000FFFF0000000000000000000000000000E1
:1051D00000000000000000000000000000000000CF
:1051E00000E000F8007E801FE007F8017E001F004D
:1051F0007E00F801E007801F007E00F800E000005C
:105200000000000000000000F01FFC3F3E381F3887
:105210001F381E001E003C007800F000E001C003B3
:10522000C003C007C007000000000000C007C0079F
:10523000C00700000000000000000000F803FE0F9F
:105240001E1F0F3E7F3CFF78EF79C773C7F38FF3C4
:105250008FF38FF39FF39FF3FF73FF7BF779003C8E
:105260001C1FFC0FF80300000000000000000000FD
:10527000000000000000E003E003F007F007F00783
:10528000780F780F7C0E3C1E3C1E3E3CFE3FFF3FDD
:105290001F780F780FF007F007F000000000000003
:1052A00000000000000000000000F83FFC3F3E3C12
:1052B0001E3C1E3C1E3C3E3C7C3CF03FF83F7E3C8E
:1052C0001F3C1F3C0F3C0F3C1F3CFE3FF83F0000C3
:1052D0000000000000000000000000000000FF01CE
:1052E000FF07871F003E003C007C007800780078B4
:1052F00000780078007C007C003E003F831FFF07A1
:10530000FF0100000000000000000000000000009D
:105310000000F07FFC7F7E781F781F780F780F7871
:105320000F780F780F780F780F780F781F781E7826
:105330007E78F87FE07F00000000000000000000A1
:10534000000000000000FF3FFF3F003E003E003E27
:10535000003E003E003EFE3FFE3F003E003E003E5F
:10536000003E003E003EFF3FFF3F00000000000007
:1053700000000000000000000000FF1FFF1F001ED3
:10538000001E001E001E001E001EFF1FFF1F001E2D
:10539000001E001E001E001E001E001E001E00003B
:1053A0000000000000000000000000000000FE03FC
:1053B000FF0F871F003E007C007C007800F800F89B
:1053C0007FF87FF80F780F7C0F7C0F3E8F1FFF0F49
:1053D000FE030000000000000000000000000000CC
:1053E00000001F7C1F7C1F7C1F7C1F7C1F7C1F7C80
:1053F0001F7CFF7FFF7F1F7C1F7C1F7C1F7C1F7C0F
:105400001F7C1F7C1F7C00000000000000000000CB
:10541000000000000000FF3FFF3FE003E003E00367
:10542000E003E003E003E003E003E003E003E00364
:10543000E003E003E003FF3FFF3F00000000000047
:1054400000000000000000000000FC1FFC1F7C00AA
:105450007C007C007C007C007C007C007C007C006C
:105460007C007C0078007800F838F03FC03F0000F6
:1054700000000000000000000000000000001F3CD1
:105480001E3C3C3C783CF03CE03DE03FC03F803F70
:10549000C03FE03FF03DF03C783C7C3C3E3C1F3C54
:1054A0000F3C0000000000000000000000000000B1
:1054B0000000003E003E003E003E003E003E003E3A
:1054C000003E003E003E003E003E003E003E003EEC
:1054D000003EFF3FFF3F0000000000000000000012
:1054E0000000000000001FF81FFC1FFC3FFE3FFEF5
:1054F0003FFE7FFF77FF77FFF7F7E7F7E7F3E7F385
:10550000C7F307F007F007F007F000000000000005
:10551000000000000000000000000F7C0F7C0F7EE8
:105520000F7F0F7F8F7F8F7FCF7FEF7BEF79FF79AB
:10553000FF78FF787F783F783F781F781F780000EA
:105540000000000000000000000000000000F00764
:10555000FC1F3E3E1F7C0F780F780FF80FF80FF8F6
:105560000FF80FF80FF80F780F781F7C3E3EFC1FE6
:10557000F007000000000000000000000000000034
:105580000000FC3FFF3F1F3E0F3E0F3E0F3E0F3E11
:105590001F3E3F3EFC3FF03F003E003E003E003ECF
:1055A000003E003E003E0000000000000000000041
:1055B000000000000000F007FC1F3E3E1F7C0F783B
:1055C0000F780FF80FF80FF80FF80FF80FF80F78A3
:1055D0000F781F7C3E3EFC1FF8077C003F000F0049
:1055E00003000000000000000000F03FFC3F7E3C94
:1055F0003E3C1E3C1E3C3E3C3C3CFC3CF03FE03F05
:10560000F03DF83C7C3C3E3C1E3C1F3C0F3C000007
:105610000000000000000000000000000000FC0787
:10562000FE1F0E3E003C003C003C003EC01FF80F39
:10563000FE037F001F000F000F001F203E3CFC3FB9
:10564000F01F00000000000000000000000000004B
:105650000000FFFFFFFFE003E003E003E003E003DF
:10566000E003E003E003E003E003E003E003E00322
:10567000E003E003E0030000000000000000000081
:105680000000000000000F7C0F7C0F7C0F7C0F7C63
:105690000F7C0F7C0F7C0F7C0F7C0F7C0F7C0F7CB2
:1056A0001E3C1E3C3E3EFC1FF007000000000000B8
:1056B0000000000000000000000007F007F007F8FD
:1056C0000F780F7C1E3C1E3C1E3E3C1E3C1F781F6C
:1056D000780FF80FF007F007F007E003E003000091
:1056E000000000000000000000000000000003E0D7
:1056F00003F003F007F0E7F3E7F3E7F3E773F77B73
:10570000F77FFF7F7F7F7F7F7E7F7E3F3E3E3E3EF7
:105710003E3E00000000000000000000000000000D
:10572000000007F80F7C1E3E3E3E3C1FF80FF007BE
:10573000E007E003E003F007F80F7C0F7C1E3E3C1F
:105740001F780F780FF0000000000000000000003C
:1057500000000000000007F807780F7C1E3C1E3E8A
:105760003C1F780FF80FF007E003E003E003E003CD
:10577000E003E003E003E003E003000000000000BA
:1057800000000000000000000000FF7FFF7F0F000E
:105790001F003E007C00F800F000E001E003C007BD
:1057A000800F000F001E003E007CFF7FFF7F000087
:1057B0000000000000000000FF078007800780074E
:1057C00080078007800780078007800780078007A1
:1057D0008007800780078007800780078007800791
:1057E000800780078007FF07FF0700000078007828
:1057F000003C003C001E001E000F000F80078007C9
:10580000C003C003E001E001F000F0007800780080
:105810003C003C001E001E000F000F0007000000AF
:10582000F07FF000F000F000F000F000F000F00079
:10583000F000F000F000F000F000F000F000F000E8
:10584000F000F000F000F000F000F000F000F07F59
:10585000F07F0000C000C001C001E003E003F007DA
:10586000F0077807780F380F3C1E3C1E1E3C1E3C8C
:105870000F380F78077800000000000000000000DB
:105880000000000000000000000000000000000018
:105890000000000000000000000000000000000008
:1058A00000000000000000000000000000000000F8
:1058B0000000FFFFFFFF000000000000F0000000FC
:1058C00000000000000000000000000000000000D8
:1058D00000000000000000000000000000000000C8
:1058E00000000000000000000000000000000000B8
:1058F000000000000000000000000000F80FFC3F66
:105900007C3C3E003E003E00FE07FE1F3E3E3E7CCD
:105910003E783E7C7E7CFF3FCF1F000000000000F1
:1059200000000000003C003C003C003C003C003C0F
:10593000F83DFE3F3E3F1F3E0F3C0F3C0F3C0F3CEF
:105940000F3C0F3C1F3C1E3C3E3FFC3FF03B000029
:105950000000000000000000000000000000000047
:1059600000000000FE03FF0F871F003E003E003CCA
:10597000007C007C007C003C003E003E871FFF0F47
:10598000FE03000000000000000000001F001F00D8
:105990001F001F001F001F00FF07FF1F3F3E1F3C8F
:1059A0001F7C1F7C1F7C1F781F781F7C1F7C3F3C47
:1059B0007F3EFF1FDF0F000000000000000000001E
:1059C000000000000000000000000000F803FC0FD1
:1059D0003E1F1E3E1F3C1F7CFF7FFF7F007C007C24
:1059E000003C003E071FFF0FFE0300000000000008
:1059F00000000000FF01E103C003C007C007C007AB
:105A0000FF7FFF7FC007C007C007C007C007C007F0
:105A1000C007C007C007C007C007C007C007000015
:105A20000000000000000000000000000000000076
:105A300000000000EF07FF1F7F3E1F3C1F7C1F7C04
:105A40001F781F781F781F7C1F7C3F3C7F3EFF1F05
:105A5000DF0F1E001E001E007C38F83F003C003C9B
:105A6000003C003C003C003CFC3DFE3F9E3F1F3F95
:105A70001F3E1F3C1F3C1F3C1F3C1F3C1F3C1F3C4C
:105A80001F3C1F3C1F3C0000000000000000000005
:105A9000F001F0010000000000000000E07FE07F66
:105AA000E001E001E001E001E001E001E001E001EE
:105AB000E001E001E001E001E00100000000000081
:105AC00000000000F800F8000000000000000000E6
:105AD000F83FF83FF800F800F800F800F800F80088
